:100000000C9434000C943E000C943E000C943E0082
:100010000C943E000C943E000C943E000C943E0068
:100020000C943E000C943E000C943E000C943E0058
:100030000C943E000C943E000C943E000C943E0048
:100040000C943E000C943E000C943E000C943E0038
:100050000C943E000C943E000C943E000C943E0028
:100060000C943E000C943E0011241FBECFEFD8E04C
:10007000DEBFCDBF0E944C000C9459000C940000D0
:1000800090E8909361008093610008950D9303952B
:10009000A436E1F7B130D1F7CF93DF931F92CDB7FC
:1000A000DEB780E00E944000198289810E944600EC
:0600B000FBCFF894FFCF26
:00000001FF
